:020000040800F2
:10000000E006002089010008491400084114000896
:10001000451400084502000875150008000000009E
:100020000000000000000000000000005114000863
:1000300049020008000000004D1400085514000893
:10004000A3010008A3010008A3010008A301000800
:10005000A3010008A3010008A3010008A3010008F0
:10006000A3010008A3010008A3010008A3010008E0
:10007000A3010008A3010008A3010008A3010008D0
:10008000A3010008A3010008A3010008A3010008C0
:10009000A3010008A3010008A3010008A3010008B0
:1000A000A3010008A3010008A3010008A3010008A0
:1000B000A3010008A3010008A3010008A301000890
:1000C000A3010008A3010008A3010008A301000880
:1000D000A301000869150008A3010008A301000896
:1000E000A3010008A3010008A301000800F002F822
:1000F00000F03AF80AA090E8000C82448344AAF188
:100100000107DA4501D100F02FF8AFF2090EBAE885
:100110000F0013F0010F18BFFB1A43F0010318473B
:10012000AC190000CC190000103A24BF78C878C17F
:10013000FAD8520724BF30C830C144BF04680C60ED
:10014000704700000023002400250026103A28BF35
:1001500078C1FBD8520728BF30C148BF0B60704739
:100160001FB51FBD10B510BD00F031F81146FFF7E7
:10017000F7FF01F05BFA00F04FF803B4FFF7F2FF6E
:1001800003BC00F057F800000948804709480047C1
:10019000FEE7FEE7FEE7FEE7FEE7FEE7FEE7FEE737
:1001A000FEE7FEE704480549054A064B7047000094
:1001B00059140008ED000008E0000020E0060020CF
:1001C000E0020020E002002070477047704775464B
:1001D00000F02CF8AE4605006946534620F00700B3
:1001E000854618B020B5FFF7DDFFBDE820404FF091
:1001F00000064FF000074FF000084FF0000BAC4630
:10020000ACE8C009ACE8C009ACE8C009ACE8C0097A
:1002100021F007018D46704710B50446AFF300800A
:100220002046BDE81040FFF7A8BF00000048704717
:100230001000002001491820ABBEFEE72600020096
:1002400070470000FEE7000070470000014690F88C
:100250002100022816D10868D1E90FC3026822F0F4
:100260000E020260026822F001020260012000FA20
:1002700003F2CCF8042081F821000020002281F84C
:1002800020207047042088630120002281F820206C
:100290007047000080B590F82110022924D102682F
:1002A000116821F00E0111602F211368C4F20201C0
:1002B0008A4240F20401C4F2020123F001031360F8
:1002C00016DD3023C4F202039A421DD04423C4F247
:1002D00002039A421CD05823C4F202039A421DD151
:1002E0004FF4803322E000BF04218163012080BDF0
:1002F0000823C4F202039A420ED01C23C4F2020364
:100300009A420BD1102311E04FF480730EE000BF2E
:100310004FF480530AE000BF012307E001F1680CAD
:100320004FF08073624508BF4FF480130B600121CA
:1003300080F82110426B002180F820100AB190470C
:100340000021084680BD00002DE9F04F82B00E6804
:10035000002E00F0038141F20042C4F201020423A6
:1003600040F2004E904208BF03234FF6FF7CC4F2D8
:10037000010E009300240123C1F2100C4FF0000A7B
:100380004FF0000949E000BF012704F00C030F22E1
:100390009A402BEA020207FA03F34FEA9A051A433E
:1003A00046F82520D1F804B040F20C455FEACB2294
:1003B000DEF8082054BF22EA080242EA0802C4F22A
:1003C0000105CEF808202A685FEA8B2354BF22EA91
:1003D000080242EA08022A605FEA8B33DEF8042052
:1003E00054BF22EA080242EA08025FEACB33CEF8A1
:1003F0000420DEF800204FF0010354BF22EA080277
:1004000042EA0802CEF800200E680AF1010A36FA24
:100410000AF204F1040400F0A18003FA0AF816EAD3
:10042000080FF1D04E68664512DC122E56D8DFE870
:1004300006F0350B454955555555555555555555A6
:100440005555554D510000BFD1F80C9046E000BF06
:100450004FF6FF72C1F2210296420FDC0022C1F278
:10046000110296421AD00022C1F21202964215D011
:100470000022C1F22102964210D02FE00022C1F2E8
:10048000220296420AD00022C1F23102964205D0E1
:100490000022C1F23202964220D100BF8A684AB1DE
:1004A000012A14BFC0F81480C0F810804FF008096A
:1004B00014E000BF4FF0040910E000BFCA6802F169
:1004C00008090BE04FF0000908E000BFCA6802F11C
:1004D000040903E0CA6802F10C0900BF224606467F
:1004E000BAF1080F24BF203A043637680F2595402B
:1004F00027EA050509FA02F22A433260CA79D206D0
:100500007FF582AF41F21803C4F202031A68AEF518
:100510007E7642F001021A601A6802F0010201922E
:10052000019A2AF0030256F802B040F60002C4F223
:100530000102904210D040F60042C4F20102904203
:100540003FF422AF41F20002C4F20102009F904248
:1005500008BF022719E700BF002716E702B0BDE871
:10056000F08F0000C26802EA0103914341EA0341AF
:1005700001617047002A08BF09040161704700004B
:1005800040F2DC00C2F200000068704740F2000058
:1005900040F2DC01C2F20000C2F2000100780A68F9
:1005A000104408607047000080B542F20000C4F2B9
:1005B0000200016841F010010160032000F08EF894
:1005C0000F2000F005F800F027F8002080BD0000A3
:1005D00070B540F20006C2F2000640F2080132781F
:1005E000C2F200014FF47A730968B3FBF2F20446D9
:1005F000B1FBF2F1084600F063FB0F2C4FF0010550
:1006000008D838B94FF0FF3021460022002500F00D
:1006100039F87460284670BD82B041F21800C4F207
:1006200002000168022241F001010160016801F04D
:10063000010101910199416841F080514160406898
:1006400000F08050009000980420C4F2010001687E
:1006500062F31A61016002B070470000002848BFD1
:100660007047C1B200F01F00012202FA00F04EF202
:100670000012CEF2000242EAD10121F0030108602B
:100680007047000010B54EF60C5CCEF2000CDCF8A2
:100690000030C3F3022E8EF00704042C28BF04247C
:1006A000BEF103034FF0FF3E0EFA04F438BF0023FF
:1006B000A14399400EFA03F39A43114300F00F024D
:1006C00000F160430901043A03F5644362440028E1
:1006D00048BF02F10C03197010BD00004EF60C511A
:1006E000CEF200010A684FF6FF031A4060F30A22B7
:1006F00042F0806040F0FD70086070472DE9F043E3
:1007000081B0002800F0858042F20008C4F202089F
:100710000446D8F800000D4600F0070088420CD2CD
:10072000D8F8000020F007002843C8F80000D8F8E7
:10073000000000F00700A8426BD1206841F20409D4
:100740008107C4F2020917D5410705D5D9F8001071
:1007500041F4E061C9F80010010705D5D9F800108F
:1007600041F46051C9F80010D9F80010A26821F0D6
:10077000F0011143C9F80010C00741D1D8F80000BA
:1007800000F00700A8420CD9D8F8000020F00700BC
:100790002843C8F80000D8F8000000F00700A8427D
:1007A00037D12068410707D5D9F80010E26821F455
:1007B000E0611143C9F80010000708D5D9F800001E
:1007C000216920F4605040EAC100C9F80000D9F85E
:1007D000002002F00C00082841F20020C0F27A004C
:1007E00050D141F6BA23C2F38341C0F60003595CED
:1007F000D2033BD440F60010C0F23D00484341E034
:10080000606802280AD001282AD159F8041C8903FB
:1008100008D4012001B0BDE8F08300BF59F8041CE2
:100820008901F6D5D9F8001021F003010843C9F871
:100830000000FFF7A5FE064641F28837D9F8000010
:10084000616800F00C00B0EB810F97D0FFF798FEC5
:10085000801BB842F2D9032001B0BDE8F08300BF8D
:1008600059F8041C8907D4D5DCE700BFD9F800206B
:1008700041F6B823C2F34042C0F600039A5C4843F5
:10088000B0FBF2F0D9F8001041F6A022C1F3031139
:10089000C0F60002515C40F2080220FA01F140F279
:1008A0000400C2F200000068C2F200021160FFF70B
:1008B0008FFE002001B0BDE8F083000040F2080088
:1008C00041F20401C2F20000C4F2020100680968AA
:1008D00041F6B022C1F30221C0F60002515CC840CB
:1008E0007047000040F2080041F20401C2F200002B
:1008F000C4F202010068096841F6B022C1F3C221C6
:10090000C0F60002515CC840704700002DE9F0417C
:1009100082B0002868D00446007841F20006C00783
:10092000C4F2020625D0706800F00C0004281BD029
:10093000706800F00C00082802D17068C00313D45E
:100940006068002800F06881B0F5A02F00F07C817D
:10095000B0F5803F00F07C81306820F4803030605A
:10096000306820F4802076E13068800301D560682B
:10097000D0B32078800718D5706810F00C0F07D01E
:10098000706800F00C0008286ED17068C0036BD44A
:100990003068800702D52069012825D13068616957
:1009A00020F0F80040EAC1003060207800071FD432
:1009B0002078400732D4E56995B1706800F00C00EA
:1009C000082840F08F80012D0ED07068216A00F455
:1009D00080328A4208D1616A00F47010884203D1E3
:1009E000002002B0BDE8F081012002B0BDE8F08136
:1009F000A069002862D00020C4F242200121C0F882
:100A00008014FFF7BDFD0546706A800700F18C80F9
:100A1000FFF7B6FD401B0228F6D92AE1F06910F075
:100A2000805808D1F06940F08050F061F06900F022
:100A300080500090009847F20007C4F20007386821
:100A4000C00529D4386840F480703860FFF798FDFD
:100A5000054600BF3868C0051ED4FFF791FD401B56
:100A60006428F7D905E100BF2069002840F20000A2
:100A7000C4F2422000F0828001210160FFF780FD76
:100A8000054600BF306880073FF588AFFFF778FD67
:100A9000401B0228F6D9ECE0E068002800F08080D6
:100AA000052800F09780012800F09880306A20F037
:100AB00001003062306A20F0040092E00020C4F2AD
:100AC00042200021C0F88014FFF75AFD054600BF00
:100AD000706A80077FF56CAFFFF752FD401B02285C
:100AE000F6D9C6E00027C4F2422700203866FFF797
:100AF00047FD022D05460BD13068800140F1BE80D4
:100B0000FFF73EFD401B02284FF00300F4D968E7D1
:100B1000306880017FF564AFFFF732FD401B02288B
:100B20004FF00300F4D95CE740F20800C2F2000085
:100B3000006844F6D351C1F26201A0FB0101480AEA
:100B4000019000BF00BF0198411E002801913FF4B1
:100B50002FAF00BF0198411E002801913FF428AF3C
:100B600000BF0198411E002801913FF421AF00BF52
:100B70000198411E00280191E4D119E7002101608C
:100B8000FFF7FEFC054600BF306880077FF50DAF1C
:100B9000FFF7F6FC401B02284FF00300F4D920E7D2
:100BA000306A20F001003062306A20F004003062C8
:100BB000FFF7E6FC054641F2883700BF306A800740
:100BC00020D5FFF7DDFC401BB8424FF00300F5D9FC
:100BD00007E700BF306A40F004003062306A40F03E
:100BE00001003062FFF7CCFC054641F2883700BFB8
:100BF000306A800706D4FFF7C3FC401BB842F7D920
:100C000037E000BFB8F1000F7FF4D5AEF06920F0F7
:100C10008050F061CFE600BF306820F48030306053
:100C2000306820F480203060FFF7AAFC054600BF42
:100C3000306880037FF59DAEFFF7A2FC401B64285F
:100C40004FF00300F4D9CCE6306840F480203060E7
:100C5000306840F480303060FFF792FC054600BFFA
:100C6000306880033FF585AEFFF78AFC401B64289F
:100C7000F6D9032002B0BDE8F08100BF206AB0F5CC
:100C8000803F05D17168A26821F400311143716081
:100C90007168626A21F47411114308437060012085
:100CA0003866FFF76DFC0446306880013FF598AE6A
:100CB000FFF766FC001B02284FF00300F4D990E612
:100CC000411E0020B0EB116F1CBF012070474EF297
:100CD0001002CEF2000251604EF62351CEF2000116
:100CE000F0230B700721906011607047704700007F
:100CF00070470000B0B582B0044600680168C36860
:100D0000426901F02F05202D03F0200506D12DB1F9
:100D1000204602B0BDE8B04000F0A6BB5FEA017C0F
:100D20001EBF02F0010E03F4907212EB0E0253D1BB
:100D3000226B012A05D111F0100218BF13F0100226
:100D400036D10A0622D513F080021FD094F8411044
:100D500021293FD1A168B1F5805F03D12169002924
:100D600000F07082216A4A1C226209784160E18C9D
:100D700001390A04E1842DD1C16821F08001C160EC
:100D8000C16841F04001C16002B0B0BD490621D543
:100D900013F040011ED0C16821F04001C160202144
:100DA000204684F8411002B0BDE8B04000F046BBD8
:100DB0000021019101680191416801910199406907
:100DC000400613D4A08DE18DE28D002A18BF884221
:100DD00040F0BA8102B0B0BDCA0718BF13F48072E8
:100DE00040F0B6804A0700F1B980BEE0E06B0168D0
:100DF00049688AB2002AEDD0A38D9A42EAD2E185F1
:100E00008069202800F09C80206850E8030F21684A
:100E100020F4807041E80302DAB1206850E8030F43
:100E2000216820F4807041E8030292B1206850E804
:100E3000030F216820F4807041E803024AB1206862
:100E400050E8030F216820F4807041E80302002A73
:100E5000DAD1206850E8050F216820F0010041E850
:100E60000502DAB1206850E8050F216820F0010082
:100E700041E8050292B1206850E8050F216820F092
:100E8000010041E805024AB1206850E8050F2168D9
:100E900020F0010041E80502002ADAD1206850E87C
:100EA000050F216820F0400041E80502DAB1206812
:100EB00050E8050F216820F0400041E8050292B19A
:100EC000206850E8050F216820F0400041E8050245
:100ED0004AB1206850E8050F216820F0400041E841
:100EE0000502002ADAD1202084F842000020206385
:100EF000206850E8030F216820F0100041E8030249
:100F0000DAB1206850E8030F216820F0100041E8B2
:100F1000030292B1206850E8030F216820F010000E
:100F200041E803024AB1206850E8030F216820F02D
:100F3000100041E80302002ADAD1E06BFFF786F9DE
:100F400002206063A08DE18D401A81B2204674E1D9
:100F5000626C42F0010262644A0706D5BEF1000FDE
:100F600003D0626C42F0020262648A0706D5BEF1C9
:100F7000000F03D0626C42F004026264BCF1000F07
:100F800009D545EA0E02B2FA82F2520903D1626C27
:100F900042F008026264626C002A3FF41BAF11F059
:100FA000200118BF002D03D0204600F05DFA206814
:100FB0004069616C00F0400001F00801401800F049
:100FC000B58000BF206850E8030F216820F49070BE
:100FD00041E80302BAB3206850E8030F216820F407
:100FE000907041E8030272B3206850E8030F216853
:100FF00020F4907041E803022AB3206850E8030F00
:10100000216820F4907041E80302002ADAD11AE046
:10101000206850E8050F216820F0010041E8050232
:10102000DAB1206850E8050F216820F0010041E89E
:10103000050292B1206850E8050F216820F00100F8
:1010400041E805024AB1206850E8050F216820F008
:10105000010041E80502002ADAD1206B012824D1E1
:10106000206850E8030F216820F0100041E80302D7
:10107000DAB1206850E8030F216820F0100041E841
:10108000030292B1206850E8030F216820F010009D
:1010900041E803024AB1206850E8030F216820F0BC
:1010A000100041E80302002ADAD1202084F842002F
:1010B000002020632068406940063FD5206850E842
:1010C000050F216820F0400041E80502DAB12068F0
:1010D00050E8050F216820F0400041E8050292B178
:1010E000206850E8050F216820F0400041E8050223
:1010F0004AB1206850E8050F216820F0400041E81F
:101100000502002ADAD1E06BC0B141F25D41C0F6C0
:1011100000014163FFF7BEF800283FF45BAEE06BCF
:10112000416B02B0BDE8B040084700BF2046FFF762
:10113000DFFD0020606402B0B0BD00BF204602B0F9
:10114000BDE8B040FFF7D4BD401A216851E8031F45
:10115000226821F4907142E80313DBB1216851E861
:10116000031F226821F4907142E8031393B12168B0
:1011700051E8031F226821F4907142E803134BB138
:10118000216851E8031F226821F4907142E803139B
:10119000002BDAD1216851E8051F226821F00101F6
:1011A00042E80513DBB1216851E8051F226821F0F0
:1011B000010142E8051393B1216851E8051F226837
:1011C00021F0010142E805134BB1216851E8051FE8
:1011D000226821F0010142E80513002BDAD1202119
:1011E00084F8421000212163216851E8031F22681E
:1011F00021F0100142E80313DBB1216851E8031F1D
:10120000226821F0100142E8031393B1216851E8EC
:10121000031F226821F0100142E803134BB121683B
:1012200051E8031F226821F0100142E80313002B4C
:10123000DAD1022281B22046626302B0BDE8B0403A
:10124000FFF754BD216A31F8022B6FF35F22426031
:1012500021628CE5002804BF0120704710B50446C8
:1012600090F8410028B9002084F84000204600F0A2
:1012700063F8242084F841002068D4E90212C3688E
:1012800023F40053C360036923F440531A430261FB
:10129000D4E904231143C268194341F20C639A4311
:1012A0001143C1604169A26921F44071114343F6C1
:1012B0000002C4F201029042416103D0FFF7FEFA3E
:1012C00002E000BFFFF70EFB62681921484391005E
:1012D000B0FBF1F048F21F51C5F2EB11A0FB012366
:1012E0005A094FF69C73C0F6FF7302FB03003223CA
:1012F00003EB0010A0FB0101F02303EA5113206867
:1013000003EB0212C1F3431111448160016921F41E
:1013100090410161416921F02A014161C16841F4B4
:101320000051C16000202021606484F8411084F8DD
:101330004210606310BD000070B586B040F6000436
:10134000C4F20104006804F5405100268842049666
:1013500002D006B070BD00BF41F21800C4F2020016
:10136000016802AD41F480410160016801F48041EF
:1013700001910199016841F004010160006829466A
:1013800000F00400019001984FF4007002900220D8
:101390000390032005902046FEF7D6FF4FF48060AF
:1013A000CDE90206204629460496FEF7CDFF25200A
:1013B00001210022FFF766F92520FFF74FF906B05B
:1013C00070BD000090F84230202B1CBF02207047F7
:1013D00000294FF0010318BF002A01D118467047B9
:1013E00000230363816222218285C285436480F8E1
:1013F00042100169006819B1C16841F48071C1608F
:101400004169002341F001014161C16841F02001BF
:10141000C160184670470000B0B540F27004C2F2D7
:101420000004254615F8140B00F0E4F82846214680
:101430000122BDE8B040FFF7C5BF000070470000C3
:10144000FEE70000FEE70000FEE700007047000036
:1014500070470000FFF79AB870470000406A00210B
:10146000C185C184FFF744BC81B090F842102229A5
:1014700021D183680246B3F5805F09D152F8281F55
:1014800052F8183C002B63D003685B680AE000BF89
:1014900052F8281F13B90369002BF5D003685B6865
:1014A00003F07F030B70116801311160C18D0139A8
:1014B0000A04C18502D001B0704700BF0168CA6844
:1014C00022F02002CA60CA6822F48072CA604A69A7
:1014D00022F001024A61202180F84210002141637C
:1014E000026B012A3CD10163016851E8031F0268C5
:1014F00021F0100142E80313DBB1016851E8031F3A
:10150000026821F0100142E8031393B1016851E829
:10151000031F026821F0100142E803134BB1016878
:1015200051E8031F026821F0100142E80313002B69
:10153000DAD101680A68D20606D5002200920A684C
:101540000092496800910099818D01B0FFF7CEBBF0
:10155000026852686FF35F2221F8022B8162A5E7CF
:1015600001B0FFF759BF000040F28400C2F2000052
:10157000FFF7C0BBFEE70000F0B581B040F2CC073A
:10158000C2F2000739780A2931D1044678793979CD
:10159000000200B2084400F09FF93325C4F2007540
:1015A000294600F0D7F843F23336C4F234363146D8
:1015B00000F0AAF92060F879B979000200B2084475
:1015C00000F08AF9294600F0C5F8314600F09CF990
:1015D0006060787A397A000200B2084400F07CF941
:1015E000294600F0B7F8314600F08EF9A06001B04E
:1015F000F0BD000040F2CC01C2F200010A7855288B
:1016000008BF002A0AD04B78002B08BF70470A2A6F
:1016100006D1087300200880704700BF01234B707B
:10162000531C0B70114488707047000090B0FEF797
:10163000BBFF00240120CDE90B44CDE909440A9009
:1016400010200B904FF4601002250F9006A8CDE9F2
:1016500007440695CDE90D54FFF758F920B1EFF393
:10166000108072B6FEE700BF0F20CDE901054FF4F0
:101670008060CDE9040401A802210394FFF73EF83D
:1016800020B1EFF3108072B6FEE700BF41F2180000
:10169000C4F20200016841F2000441F0100101604F
:1016A0000168C4F2010401F0100106910699016875
:1016B000002241F00401016000684FF4005100F085
:1016C00004000690069820464FF400550026FEF7C9
:1016D00051FF0120CDE907060220099006A9204606
:1016E0000695FEF731FE40F27005C2F2000504F5E2
:1016F0002051284640F8141F4FF416510C22C0E91F
:101700000116C0E90366C0E90526C661FFF7A2FD20
:1017100020B1EFF3108072B6FEE700BF05F11400B0
:1017200029460122FFF74EFE05F108063046FFF775
:1017300023FFFEF725FF6968401AB0F5967FF5D3C1
:1017400020464FF40051FEF70DFFFEF719FF6860C9
:10175000ECE700004FF47F0C1CEAD0121EBF1CEA1D
:10176000D11392EA0C0F93EA0C0F00F0858090EAF7
:10177000010F48BF42F4807240F4000C41F40000B5
:101780002CF07F4120F07F4000B5A2EB03028142A4
:101790000FF2081CACEB504E9EF800E0C0F10000C8
:1017A0004FEA4E0E00FB0EFC38BF49004FEA2C1CDE
:1017B0000CFB0EF34FEACE1E0EEB635E4FEA112CCC
:1017C0000EFB0CFC4FEAC1214FEA1C5300FB031136
:1017D00002F5FA024FEA112C0EFB0CFC4FEA013124
:1017E0004FEADC4C00FB0C1142EB2242C14228BF05
:1017F00009184CEB03335DF804EB10EB410143EBAC
:10180000C250B2F57C0F38BF704729D512F0F00FE7
:101810001CBF00F1C04000F000407047008182838F
:101820008485868788898B8C8D8E8F9192939596EF
:1018300097999A9C9D9FA0A2A3A5A7A8AAACAEB079
:10184000B2B3B5B7B9BCBEC0C2C5C7C9CCCED1D47E
:10185000D7D9DCDFE2E6E9ECF0F3F7FAFE000000AE
:101860004FEA400C0CF1807CBCF17E4F28BF7047E2
:10187000B0F1C04000F00FB90CEAD11390EA010FAB
:1018800048BF42F48072624538BF634507D213F403
:101890007F0F16D080EA010000F00040704710B5BD
:1018A00000F0B3F8097EFC3E00F005B880EA0100C4
:1018B00000F00040704780EA010000F0004000F0B6
:1018C000EAB812F47F0F04BF0248704780EA0100B3
:1018D00000F0E1B80000C07F10F0004148BF404276
:1018E000B0FA80F310FA03F2C3F19D030BD051EA72
:1018F000C35101EB1220530638BF704700F10100BD
:1019000008BF20F0010070474FF47F0C1CEAD01292
:101910001EBF1CEAD11392EA0C0F93EA0C0F00F0E1
:10192000478090EA010F48BF42F480724FF0004CAC
:101930004CEA00204CEA012102EB0302A0FB011358
:10194000A2F50002002918BF43F001035B0028BF85
:101950004FEA330342EB22425FEA132C4CEBC250B6
:101960002EBFBCEB436FB2F57C0F70474FEA036CA0
:10197000BCF1004F08BF20F00100B2F57C0F38BF6A
:1019800070470BD582F0FF0212F5803FC8BF704749
:1019900000F1C040D8BF00F00040704700F5000CD7
:1019A0005FEA4C0C48BF7047B0F1C04000F073B81C
:1019B0000CEAD11390EA010F48BF42F480726245ED
:1019C00038BF634504D280EA010000F00040704750
:1019D00010B500F01AF800BF8900013E00F007B80A
:1019E00000F009B85FEA410C5FEA1C6C08D080EA9D
:1019F000010000F050B85FEA400C5FEA1C6CF6D1C1
:101A00004FF00040A0F5800070470EF1020E2EF05E
:101A1000030E5EF8044B244204D44FEA4102B2F1B3
:101A20007F4F11D84FEA4003B3F17F4F0CD80ED14E
:101A30004FEAD07C0CEB4C0C0CF1020CB2F17F4F56
:101A400008BF4CEBD17C04E04FF0080C01E04FEAFA
:101A5000D17C0CEB4C0324FA03F404F00704B4F13A
:101A6000040C06D20EEB840CBDE810404CF0010CC7
:101A70006047DFE80CF0070802024FF00040A0F5D5
:101A8000800010BD0846420018BFD2F1807288BFA6
:101A900000F0004010BDFF2141EAD050C005704762
:101AA000000000000000000001020304060708090E
:101AB00000000000010203040102020304050607FE
:101AC00008090A0B0C0D0E0F10100000F01A000888
:101AD000000000201000000028010008001B000882
:101AE00010000020D00600004401000800000000A3
:101AF00001000000100000000024F40000000000BD
:04000005080000ED02
:00000001FF
